{
  "contractName": "Campaign",
  "abi": [
    {
      "inputs": [
        {
          "internalType": "uint256",
          "name": "_rewardunit",
          "type": "uint256"
        },
        {
          "internalType": "uint256",
          "name": "_endate",
          "type": "uint256"
        }
      ],
      "stateMutability": "payable",
      "type": "constructor"
    },
    {
      "anonymous": false,
      "inputs": [
        {
          "indexed": false,
          "internalType": "uint256",
          "name": "amount",
          "type": "uint256"
        }
      ],
      "name": "Deposited",
      "type": "event"
    },
    {
      "anonymous": false,
      "inputs": [
        {
          "indexed": true,
          "internalType": "address",
          "name": "previousOwner",
          "type": "address"
        },
        {
          "indexed": true,
          "internalType": "address",
          "name": "newOwner",
          "type": "address"
        }
      ],
      "name": "OwnershipTransferred",
      "type": "event"
    },
    {
      "anonymous": false,
      "inputs": [
        {
          "indexed": true,
          "internalType": "address",
          "name": "claim",
          "type": "address"
        },
        {
          "indexed": false,
          "internalType": "uint256",
          "name": "payoutAmount",
          "type": "uint256"
        }
      ],
      "name": "Withdrawn",
      "type": "event"
    },
    {
      "inputs": [
        {
          "internalType": "address",
          "name": "",
          "type": "address"
        }
      ],
      "name": "claimees",
      "outputs": [
        {
          "internalType": "address",
          "name": "claimee",
          "type": "address"
        },
        {
          "internalType": "uint256",
          "name": "transaction",
          "type": "uint256"
        },
        {
          "internalType": "bool",
          "name": "claimed",
          "type": "bool"
        }
      ],
      "stateMutability": "view",
      "type": "function"
    },
    {
      "inputs": [],
      "name": "contractBalance",
      "outputs": [
        {
          "internalType": "uint256",
          "name": "",
          "type": "uint256"
        }
      ],
      "stateMutability": "view",
      "type": "function"
    },
    {
      "inputs": [],
      "name": "endate",
      "outputs": [
        {
          "internalType": "uint256",
          "name": "",
          "type": "uint256"
        }
      ],
      "stateMutability": "view",
      "type": "function"
    },
    {
      "inputs": [],
      "name": "owner",
      "outputs": [
        {
          "internalType": "address",
          "name": "",
          "type": "address"
        }
      ],
      "stateMutability": "view",
      "type": "function"
    },
    {
      "inputs": [],
      "name": "renounceOwnership",
      "outputs": [],
      "stateMutability": "nonpayable",
      "type": "function"
    },
    {
      "inputs": [],
      "name": "rewardunit",
      "outputs": [
        {
          "internalType": "uint256",
          "name": "",
          "type": "uint256"
        }
      ],
      "stateMutability": "view",
      "type": "function"
    },
    {
      "inputs": [],
      "name": "startdate",
      "outputs": [
        {
          "internalType": "uint256",
          "name": "",
          "type": "uint256"
        }
      ],
      "stateMutability": "view",
      "type": "function"
    },
    {
      "inputs": [
        {
          "internalType": "address",
          "name": "newOwner",
          "type": "address"
        }
      ],
      "name": "transferOwnership",
      "outputs": [],
      "stateMutability": "nonpayable",
      "type": "function"
    },
    {
      "inputs": [
        {
          "internalType": "uint256",
          "name": "_amount",
          "type": "uint256"
        }
      ],
      "name": "deposit",
      "outputs": [],
      "stateMutability": "payable",
      "type": "function"
    },
    {
      "inputs": [
        {
          "internalType": "bool",
          "name": "_verification",
          "type": "bool"
        },
        {
          "internalType": "uint256",
          "name": "_transaction",
          "type": "uint256"
        }
      ],
      "name": "payout",
      "outputs": [],
      "stateMutability": "nonpayable",
      "type": "function"
    },
    {
      "inputs": [],
      "name": "endCampaign",
      "outputs": [],
      "stateMutability": "nonpayable",
      "type": "function"
    },
    {
      "inputs": [],
      "name": "contractZero",
      "outputs": [],
      "stateMutability": "nonpayable",
      "type": "function"
    }
  ],
  "bytecode": "0x6080604052600060015542600255600060035560405162001277380380620012778339818101604052810190620000379190620001c5565b6000620000496200010e60201b60201c565b9050806000806101000a81548173ffffffffffffffffffffffffffffffffffffffff021916908373ffffffffffffffffffffffffffffffffffffffff1602179055508073ffffffffffffffffffffffffffffffffffffffff16600073ffffffffffffffffffffffffffffffffffffffff167f8be0079c531659141344cd1fd0a4f28419497f9722a3daafe3b4186f6b6457e060405160405180910390a350816001819055508060038190555062000106346200011660201b60201c565b505062000359565b600033905090565b600034116200015c576040517f08c379a0000000000000000000000000000000000000000000000000000000008152600401620001539062000259565b60405180910390fd5b806004546200016c9190620002a9565b6004819055507f2a89b2e3d580398d6dc2db5e0f336b52602bbaa51afa9bb5cdf59239cf0d2bea81604051620001a391906200027b565b60405180910390a150565b600081519050620001bf816200033f565b92915050565b60008060408385031215620001d957600080fd5b6000620001e985828601620001ae565b9250506020620001fc85828601620001ae565b9150509250929050565b600062000215601a8362000298565b91507f506c65617365206465706f736974206d6f7265207468616e20300000000000006000830152602082019050919050565b620002538162000306565b82525050565b60006020820190508181036000830152620002748162000206565b9050919050565b600060208201905062000292600083018462000248565b92915050565b600082825260208201905092915050565b6000620002b68262000306565b9150620002c38362000306565b9250827fffffffffffffffffffffffffffffffffffffffffffffffffffffffffffffffff03821115620002fb57620002fa62000310565b5b828201905092915050565b6000819050919050565b7f4e487b7100000000000000000000000000000000000000000000000000000000600052601160045260246000fd5b6200034a8162000306565b81146200035657600080fd5b50565b610f0e80620003696000396000f3fe6080604052600436106100a75760003560e01c80638c10bec5116100645780638c10bec5146101705780638da5cb5b1461019b578063b6b55f25146101c6578063cde9f2ea146101e2578063dd6b9b451461020d578063f2fde38b1461024c576100a7565b8063020d5b21146100ac57806313db3624146100d7578063212d494c146100ee578063715018a61461011757806371aac7f91461012e5780638b7afe2e14610145575b600080fd5b3480156100b857600080fd5b506100c1610275565b6040516100ce9190610d66565b60405180910390f35b3480156100e357600080fd5b506100ec61027b565b005b3480156100fa57600080fd5b5061011560048036038101906101109190610a90565b610290565b005b34801561012357600080fd5b5061012c610531565b005b34801561013a57600080fd5b5061014361066b565b005b34801561015157600080fd5b5061015a610754565b6040516101679190610d66565b60405180910390f35b34801561017c57600080fd5b5061018561075a565b6040516101929190610d66565b60405180910390f35b3480156101a757600080fd5b506101b0610760565b6040516101bd9190610c94565b60405180910390f35b6101e060048036038101906101db9190610acc565b610789565b005b3480156101ee57600080fd5b506101f761081a565b6040516102049190610d66565b60405180910390f35b34801561021957600080fd5b50610234600480360381019061022f9190610a67565b610820565b60405161024393929190610caf565b60405180910390f35b34801561025857600080fd5b50610273600480360381019061026e9190610a67565b610877565b005b60015481565b6000600454141561028e57426003819055505b565b6000600560003373ffffffffffffffffffffffffffffffffffffffff1673ffffffffffffffffffffffffffffffffffffffff168152602001908152602001600020905060405180606001604052803373ffffffffffffffffffffffffffffffffffffffff16815260200183815260200160001515815250600560003373ffffffffffffffffffffffffffffffffffffffff1673ffffffffffffffffffffffffffffffffffffffff16815260200190815260200160002060008201518160000160006101000a81548173ffffffffffffffffffffffffffffffffffffffff021916908373ffffffffffffffffffffffffffffffffffffffff1602179055506020820151816001015560408201518160020160006101000a81548160ff021916908315150217905550905050600115158315151480156103e35750600015158160020160009054906101000a900460ff161515145b610422576040517f08c379a000000000000000000000000000000000000000000000000000000000815260040161041990610d06565b60405180910390fd5b6001600560003373ffffffffffffffffffffffffffffffffffffffff1673ffffffffffffffffffffffffffffffffffffffff16815260200190815260200160002060020160006101000a81548160ff0219169083151502179055503373ffffffffffffffffffffffffffffffffffffffff166108fc6001549081150290604051600060405180830381858888f193505050501580156104c5573d6000803e3d6000fd5b506001546004546104d69190610de8565b6004819055503373ffffffffffffffffffffffffffffffffffffffff167f7084f5476618d8e60b11ef0d7d3f06914655adb8793e28ff7f018d4c76d505d56001546040516105249190610d66565b60405180910390a2505050565b610539610a20565b73ffffffffffffffffffffffffffffffffffffffff16610557610760565b73ffffffffffffffffffffffffffffffffffffffff16146105ad576040517f08c379a00000000000000000000000000000000000000000000000000000000081526004016105a490610d26565b60405180910390fd5b600073ffffffffffffffffffffffffffffffffffffffff1660008054906101000a900473ffffffffffffffffffffffffffffffffffffffff1673ffffffffffffffffffffffffffffffffffffffff167f8be0079c531659141344cd1fd0a4f28419497f9722a3daafe3b4186f6b6457e060405160405180910390a360008060006101000a81548173ffffffffffffffffffffffffffffffffffffffff021916908373ffffffffffffffffffffffffffffffffffffffff160217905550565b610673610a20565b73ffffffffffffffffffffffffffffffffffffffff16610691610760565b73ffffffffffffffffffffffffffffffffffffffff16146106e7576040517f08c379a00000000000000000000000000000000000000000000000000000000081526004016106de90610d26565b60405180910390fd5b60006004541180156106fb57506003544210155b15610752573373ffffffffffffffffffffffffffffffffffffffff166108fc6004549081150290604051600060405180830381858888f19350505050158015610748573d6000803e3d6000fd5b5061075161027b565b5b565b60045481565b60035481565b60008060009054906101000a900473ffffffffffffffffffffffffffffffffffffffff16905090565b600034116107cc576040517f08c379a00000000000000000000000000000000000000000000000000000000081526004016107c390610d46565b60405180910390fd5b806004546107da9190610d92565b6004819055507f2a89b2e3d580398d6dc2db5e0f336b52602bbaa51afa9bb5cdf59239cf0d2bea8160405161080f9190610d66565b60405180910390a150565b60025481565b60056020528060005260406000206000915090508060000160009054906101000a900473ffffffffffffffffffffffffffffffffffffffff16908060010154908060020160009054906101000a900460ff16905083565b61087f610a20565b73ffffffffffffffffffffffffffffffffffffffff1661089d610760565b73ffffffffffffffffffffffffffffffffffffffff16146108f3576040517f08c379a00000000000000000000000000000000000000000000000000000000081526004016108ea90610d26565b60405180910390fd5b600073ffffffffffffffffffffffffffffffffffffffff168173ffffffffffffffffffffffffffffffffffffffff161415610963576040517f08c379a000000000000000000000000000000000000000000000000000000000815260040161095a90610ce6565b60405180910390fd5b8073ffffffffffffffffffffffffffffffffffffffff1660008054906101000a900473ffffffffffffffffffffffffffffffffffffffff1673ffffffffffffffffffffffffffffffffffffffff167f8be0079c531659141344cd1fd0a4f28419497f9722a3daafe3b4186f6b6457e060405160405180910390a3806000806101000a81548173ffffffffffffffffffffffffffffffffffffffff021916908373ffffffffffffffffffffffffffffffffffffffff16021790555050565b600033905090565b600081359050610a3781610e93565b92915050565b600081359050610a4c81610eaa565b92915050565b600081359050610a6181610ec1565b92915050565b600060208284031215610a7957600080fd5b6000610a8784828501610a28565b91505092915050565b60008060408385031215610aa357600080fd5b6000610ab185828601610a3d565b9250506020610ac285828601610a52565b9150509250929050565b600060208284031215610ade57600080fd5b6000610aec84828501610a52565b91505092915050565b610afe81610e1c565b82525050565b610b0d81610e2e565b82525050565b6000610b20602683610d81565b91507f4f776e61626c653a206e6577206f776e657220697320746865207a65726f206160008301527f64647265737300000000000000000000000000000000000000000000000000006020830152604082019050919050565b6000610b86604283610d81565b91507f706c6561736520636f6d706c65746520746865207461736b7320746f20636c6160008301527f696d20746865207265776172647320666f722074686973206368616c6c656e6760208301527f652e0000000000000000000000000000000000000000000000000000000000006040830152606082019050919050565b6000610c12602083610d81565b91507f4f776e61626c653a2063616c6c6572206973206e6f7420746865206f776e65726000830152602082019050919050565b6000610c52601a83610d81565b91507f506c65617365206465706f736974206d6f7265207468616e20300000000000006000830152602082019050919050565b610c8e81610e5a565b82525050565b6000602082019050610ca96000830184610af5565b92915050565b6000606082019050610cc46000830186610af5565b610cd16020830185610c85565b610cde6040830184610b04565b949350505050565b60006020820190508181036000830152610cff81610b13565b9050919050565b60006020820190508181036000830152610d1f81610b79565b9050919050565b60006020820190508181036000830152610d3f81610c05565b9050919050565b60006020820190508181036000830152610d5f81610c45565b9050919050565b6000602082019050610d7b6000830184610c85565b92915050565b600082825260208201905092915050565b6000610d9d82610e5a565b9150610da883610e5a565b9250827fffffffffffffffffffffffffffffffffffffffffffffffffffffffffffffffff03821115610ddd57610ddc610e64565b5b828201905092915050565b6000610df382610e5a565b9150610dfe83610e5a565b925082821015610e1157610e10610e64565b5b828203905092915050565b6000610e2782610e3a565b9050919050565b60008115159050919050565b600073ffffffffffffffffffffffffffffffffffffffff82169050919050565b6000819050919050565b7f4e487b7100000000000000000000000000000000000000000000000000000000600052601160045260246000fd5b610e9c81610e1c565b8114610ea757600080fd5b50565b610eb381610e2e565b8114610ebe57600080fd5b50565b610eca81610e5a565b8114610ed557600080fd5b5056fea26469706673582212205e4c64fc61b2f9091cb633458abeb361347d6d27b07268d592a2db5a49870fe964736f6c63430008000033",
  "immutableReferences": {},
  "source": "// SPDX-License-Identifier: MIT\npragma solidity ^0.8.0;\n// import \"github/OpenZeppelin/openzeppelin-contracts/contracs/access/Ownable.sol\";\n// import \"https://github.com/OpenZeppelin/openzeppelin-contracts/blob/master/contracts/access/Ownable.sol\";\nimport \"@openzeppelin/contracts/access/Ownable.sol\";\n\n//factory\ncontract CreateCampaigns {\n    address[] public campaigns;\n    event CampaignCreated(\n        address campaignAddress,\n        uint256 rewardunit,\n        uint256 startdate,\n        uint256 endate\n    );\n\n    function createCampaign(uint256 rewardunit, uint256 endate) public payable {\n        address newCampaign = (address)(new Campaign(rewardunit, endate));\n        campaigns.push(newCampaign);\n        payable(newCampaign).transfer(msg.value);\n        // emit CampaignCreated(address(newCampaign), rewardunit, endate);\n    }\n}\n\ncontract Campaign is Ownable {\n    event Deposited(uint256 amount);\n    event Withdrawn(address indexed claim, uint256 payoutAmount);\n    uint256 public rewardunit = 0; ///in this case the reward amount will be in WEI? amount of tokens to award out\n    //how would this rewardunit work with different tokens?\n    uint256 public startdate = block.timestamp;\n    uint256 public endate = 0;\n    uint256 public contractBalance;\n\n    // uint256 public contractBalance = address(this).balance;\n    constructor(uint256 _rewardunit, uint256 _endate) payable {\n        // msg.sender = owner;\n        // owner = msg.sender;\n        rewardunit = _rewardunit;\n        endate = _endate;\n        deposit(msg.value);\n    }\n\n    //claimee struct claimees wallet address, transaction hash, yes or no (bool)\n    //creating a mapping of claimees, users in this mapping are already verfiied\n    struct claimer {\n        address claimee;\n        uint256 transaction;\n        //whether or not the claimer has previously claimed\n        bool claimed;\n    }\n    mapping(address => claimer) public claimees;\n\n    //campapign struct campaign ID, contract address of the campapign, amount of payout\n    function deposit(uint256 _amount) public payable {\n        require(msg.value > 0, \"Please deposit more than 0\");\n\n        contractBalance = contractBalance + _amount;\n\n        emit Deposited(_amount);\n    }\n\n    function payout(bool _verification, uint256 _transaction) public {\n        // Check enough balance available, otherwise just return balance\n        // claimer storage Claimer = claimees[msg.sender];\n        claimer storage Claimer = claimees[msg.sender];\n        claimees[msg.sender] = claimer(msg.sender, _transaction, false);\n\n        require(\n            _verification == true && Claimer.claimed == false,\n            \"please complete the tasks to claim the rewards for this challenge.\"\n        );\n        claimees[msg.sender].claimed = true;\n\n        // claimees[msg.sender] = claimer(msg.sender, _transaction, true);\n        payable(msg.sender).transfer(rewardunit);\n        contractBalance = contractBalance - rewardunit;\n        //emit reward claimed event here\n        emit Withdrawn(msg.sender, rewardunit);\n    }\n\n    function endCampaign() public onlyOwner {\n        //end campaign and withdraw funds if they are funds left after the duration of campaign ended.\n        if (contractBalance > 0 && block.timestamp >= endate) {\n            payable(msg.sender).transfer(contractBalance); ///check the synatx\n            contractZero();\n        }\n        //end campaign if the funds ran out before the campaign ends.\n    }\n\n    function contractZero() public {\n        if (contractBalance == 0) {\n            endate = block.timestamp;\n        }\n    }\n}\n",
  "sourcePath": "/Users/liangliang/code/reprod/2021/06/11/factory/contracts/Factory.sol",
  "compiler": {
    "name": "solc",
    "version": "0.8.0+commit.c7dfd78e.Emscripten.clang"
  },
  "schemaVersion": "3.4.1",
  "updatedAt": "2021-06-12T01:24:56.174Z",
  "devdoc": {
    "kind": "dev",
    "methods": {
      "owner()": {
        "details": "Returns the address of the current owner."
      },
      "renounceOwnership()": {
        "details": "Leaves the contract without owner. It will not be possible to call `onlyOwner` functions anymore. Can only be called by the current owner. NOTE: Renouncing ownership will leave the contract without an owner, thereby removing any functionality that is only available to the owner."
      },
      "transferOwnership(address)": {
        "details": "Transfers ownership of the contract to a new account (`newOwner`). Can only be called by the current owner."
      }
    },
    "version": 1
  },
  "userdoc": {
    "kind": "user",
    "methods": {
      "startdate()": {
        "notice": "in this case the reward amount will be in WEI? amount of tokens to award out"
      }
    },
    "version": 1
  }
}